:020000040800F2
:1080000040760020DD810008DDF9000873EC0008EF
:108010004DF90008FD8D0008113301080000000033
:108020000000000000000000000000004F060108F2
:1080300051960008000000006DFF00081D110108A6
:10804000F7810008F7810008F7810008F781000830
:10805000F7810008F7810008F7810008F781000820
:10806000F7810008F7810008F7810008F781000810
:10807000F7810008F7810008F7810008F781000800
:10808000F7810008F7810008F7810008F7810008F0
:10809000F7810008F7810008F7810008F7810008E0
:1080A000F7810008F7810008F7810008F7810008D0
:1080B000F781000889120108F7810008F78100089C
:1080C000F7810008F7810008F7810008F7810008B0
:1080D000F781000805150108F7810008F7810008FD
:1080E000F7810008F7810008F7810008F781000890
:1080F000F7810008F7810008F7810008F781000880
:10810000F7810008F7810008F7810008F78100086F
:10811000F7810008F7810008F7810008F78100085F
:10812000F781000829940008F7810008F78100080A
:10813000F7810008F7810008F7810008F78100083F
:10814000F7810008F7810008F781000819FD000891
:10815000F7810008F781000839940008F7810008CA
:10816000F7810008F7810008F7810008F78100080F
:10817000F7810008F781000815940008000000004E
:10818000F7810008F7810008F7810008F7810008EF
:10819000F7810008F7810008F7810008F7810008DF
:1081A000F7810008F781000825940008F78100088E
:1081B000F7810008F7810008F7810008F7810008BF
:1081C000F7810008F7810008DFF80CD000F01EFBF3
:1081D00000480047293B01084076002006488047B8
:1081E00006480047FEE7FEE7FEE7FEE7FEE7FEE79C
:1081F000FEE7FEE7FEE7FEE725120108C981000859
:108200002DE9F05F0546002092469B4688460646CB
:10821000814640241BE0284641464746224600F05E
:1082200076FA53465A46C01A914110D31146184661
:10823000224600F05DFA2D1A67EB01084F462246F0
:108240000120002100F054FA17EB00094E41201ED6
:10825000A4F10104DFDC484631462A464346BDE826
:10826000F09F2DE9F0410024061B254671F1000620
:1082700005DA01240027D0EB070067EB0101161E89
:1082800073F1000605DA0027D2EB0702012567EB40
:108290000303FFF7B5FF86460E4617469C46AC42E1
:1082A00004D00025D0EB050E65EB010624B10020BB
:1082B000D2EB000760EB030C704631463A4663464A
:1082C000BDE8F08140EA01039B0703D009E008C93B
:1082D000121F08C0042AFAD203E011F8013B00F88B
:1082E000013B521EF9D27047D2B201E000F8012BD7
:1082F000491EFBD270470022F6E710B513460A4626
:1083000004461946FFF7F0FF204610BD2DE9FE4F49
:10831000804681EA0300C00F0C46009021F0004126
:1083200023F00045B8EB0200A94105D240462146A2
:1083300090461C460B46024623F00040104347D0AF
:10834000270DC7F30A00C3F30A510290401A0190A7
:1083500040286BDAC3F3130040F4801B0098924668
:1083600020B10023D2EB030A63EB0B0B01985946B3
:10837000C0F14002504600F0BBF906460D4650469B
:108380005946019A00F0D3F910EB0800614100242E
:1083900087EA115284EAE7731A4340D0009A62B325
:1083A000019A012A4FEA075215DC001B61EB02011A
:1083B0004FF0004202EA0752CDE90042001C41F5AD
:1083C000801132462B4600F0D3F903B0BDE8F08FA0
:1083D00040462146F9E7001B61EB0201001C41F514
:1083E000801300185B412018A2F5001747EB03012A
:1083F00040EAD570B6196D4111E06D084FEA3606B6
:1084000045EAC0754FEA0752001B61EB0201001CF0
:1084100041F5801149084FEA3000001951413246B8
:108420002B4603B0BDE8F04F00F093B9009801224D
:1084300040000023D0EB020263EBE073009821467A
:108440004FEAE074B8EB000061EB0401E9E783F068
:1084500000435BE781F0004158E72DE9FE4F81EAD8
:10846000030404F0004421F0004100944FF0000B9D
:1084700023F0004350EA01045ED052EA03045BD0CB
:10848000C3F30A54C1F30A552C44A4F2F334019403
:10849000A0FB0254C1F3130141F48011C3F3130391
:1084A00043F4801301FB024400FB034E840A970A45
:1084B00044EA815447EA8357A4FB076802958D0A72
:1084C00005FB07854FEA932C04FB0C542705029DFE
:1084D0004FEA065847EA1637B5EB08056EEB070C6E
:1084E000870E920E47EA811742EA8312A7FB020128
:1084F000B6EB0B0164EB00042B0D43EA0C335E1862
:1085000044EB1C50DA465146E7FB0201C5F3130465
:108510004FEA0B3343EA14534FEA0432019C43EA17
:108520000603A4F10C040294009CCDE900B400F011
:108530001FF903B0BDE8F08F00200146F9E72DE9EF
:10854000F04D81EA030404F0004B21F0004514468D
:108550004FF0000A23F0004150EA050220D054EA0F
:1085600001021DD0C5F30A570246C5F31303C1F338
:108570001300C1F30A5640F4801543F48013A7EBAF
:108580000608101BD64608F2FD3873EB050002D32F
:1085900008F1010801E092185B41B8F1000F03DA1D
:1085A00000200146BDE8F08D00204FF48011064602
:1085B00084460EE0171B73EB050705D3121B63EB14
:1085C000050306434CEA010C49084FEA30009218B3
:1085D0005B4150EA0107EDD152EA030012D082EA72
:1085E000040083EA0501084305D0101BAB4106D205
:1085F0000122002306E000224FF0004302E06FF06A
:10860000010253101AEB06004CEB085110EB0A0064
:1086100041EB0B01BDE8F04D00F09BB80EB5C10F6A
:1086200080EAE0700844CA07002140F233438DE835
:108630000E000A460B4600F09BF803B000BD0EB5D5
:1086400040F2334102910021CDE900110A460B4668
:1086500000F08EF803B000BD3EB5CA17CB0F002462
:1086600050405140C0186141DA0740F23343009452
:10867000CDE901232246234600F07AF803B030BD4D
:1086800070B5C1F30A5201F000450024C1F3130193
:1086900040F2FF3341F480119A4201DA002070BDAC
:1086A00040F233439A42A2F2334203DC524200F0DA
:1086B0002EF800E090402C43F1D0404270BDC1F351
:1086C0000A5210B5C1F3130140F2FF3341F4801197
:1086D0009A4201DA002010BD40F233439A42A2F2DE
:1086E000334203DC524200F012F810BD904010BD3E
:1086F000202A04DB203A00FA02F100207047914062
:10870000C2F1200320FA03F3194390407047202A56
:1087100004DB203A21FA02F00021704721FA02F32B
:10872000D040C2F120029140084319467047202AE8
:1087300006DBCB17203A41FA02F043EAE07306E089
:1087400041FA02F3D040C2F1200291400843194699
:10875000704710B5141E73F1000408DA401C41F193
:10876000000192185B411A4301D120F0010010BDB5
:108770002DE9F04D92469B4611B1B1FA81F202E02B
:10878000B0FA80F220329046FFF7B2FF04460F465F
:1087900040EA0A0041EA0B0153465A46084313D007
:1087A000114653EA010019D0C8F140025046FFF7C4
:1087B000AEFF05460E46504659464246FFF798FF23
:1087C000084305D0012004E020463946BDE8F08D7D
:1087D0000020054346EAE0762C4337430A986305B8
:1087E000E40AA0EB08000022FD0A44EA47540A30DC
:1087F00002D500200146E9E7010510196941DDE9CC
:10880000084500196941BDE8F04DA2E7064C074D47
:1088100006E0E06840F0010394E807009847103450
:10882000AC42F6D3FFF7D4FC543E0108843E010865
:1088300070B58C1810F8015B15F0070301D110F822
:10884000013B2A1106D110F8012B03E010F8016B4F
:1088500001F8016B5B1EF9D12B0705D40023521ED2
:108860000DD401F8013BFAE710F8013BCB1A921C3A
:1088700003E013F8015B01F8015B521EF9D5A14238
:10888000D8D3002070BD38B504460D4600200090B6
:1088900002236A462946204606F06AFB9DF801003D
:1088A0009DF8001040EA012038BD38B505460C4659
:1088B000002000908DF80050200A8DF80100E0B2F1
:1088C0008DF8020002229021684606F0B7FC38BD00
:1088D00070B50446002524B1012C08D0022C12D119
:1088E0000BE04CF283310120FFF7DFFF0CE04DF28B
:1088F00083310120FFF7D9FF06E04EF283310120DA
:10890000FFF7D3FF00E000BF00BF70BD10B507F058
:1089100013FF2448007D58BB2349B1F91010214AA8
:10892000B2F92420881A002801DB014600E0414208
:108930001C4A128C914205DD01201A4908751A481B
:10894000008A88841849B1F91010164AB2F9222019
:10895000881A002801DB014600E04142114AD28B0F
:10896000914205DD02200F4908750F48008A4884AE
:108970000E480088401C0D4908800A48007F4000CE
:1089800040F2EE2110FB01F00849098891FBF0F25A
:1089900000FB121028B90348007D10B902200149DC
:1089A000087510BD00020120A00101209C010120DA
:1089B00000B52DED088B83B000200290002191209E
:1089C000FFF761FF01900198FFF728FE41EC1B0BB8
:1089D0009FED0F0B53EC102BFFF73FFD41EC1A0BF3
:1089E0009FED0D0B53EC102BFFF734FD41EC190BF1
:1089F0009FED0B0B53EC102BFFF7A1FD41EC180B77
:108A0000FFF73EFE0290029803B0BDEC088B00BD5C
:108A10007F6ABC7473C1D140000000A03728B44104
:108A2000000000000088C34010B5044641F2905396
:108A300022460021014801F0C3F810BD8007012043
:108A40007047000010B50C48C07D01280BD00A4AC1
:108A50005168126802F5F07045F2604200F064FD62
:108A600001200549C8754FF48071044802F0A6FE44
:108A7000FFF74CFF10BD000000020120000802407B
:108A800070B501250A4C0021616121610020606000
:108A9000E160A1612021A1600648206000212046FC
:108AA00000F00CF8204601F027F80025284670BD9C
:108AB00080070120000005507047000030B587B0E6
:108AC00004460D4600BF6548006840F00100634958
:108AD00008600846006800F00100019000BF00BF78
:108AE00000BF081F006840F48000091F08600846A6
:108AF000006800F48000019000BF00BF00BF08467E
:108B0000006840F0010008600846006800F00100BD
:108B1000019000BF00BF00BF0846006840F002009F
:108B200008600846006800F00200019000BF00BF26
:108B300000BF0846006840F004000860084600686E
:108B400000F00400019000BF00BF00BF08460068AD
:108B500040F0080008600846006800F00800019036
:108B600000BF00BF00BF0846006840F080000860FA
:108B70000846006800F08000019000BF00BF00BF01
:108B80000846006840F4807008600846006800F4F9
:108B90008070019000BF00BF4FF4BC4002900220E3
:108BA000039001200490032005900D20069002A957
:108BB0002B4802F0F7FCF0200290022003900120E5
:108BC0000490032005900D20069002A9254802F08C
:108BD000E9FC502002900220039001200490032021
:108BE00005900D20069002A91F4802F0DBFC4FF013
:108BF00000701E49486000211C488160C1604FF42C
:108C00008061016189004161890081618911C161CF
:108C10004902016200214162032181620021C16297
:108C2000016313481149086000BF0846A0648463CB
:108C300000BF002201214E2003F0DCF84E2003F09B
:108C4000CCF800220121392003F0D4F8392003F0B8
:108C5000C4F8A06C02F0F6F907B030BD3438024019
:108C6000001C02400020024000000240D00701200A
:108C70002864024010B50124034801F017F800B938
:108C80000024204610BD000080070120704700002E
:108C900070B52DED068B0025002400BF12E01949A8
:108CA000096831F81400C11700EB91718910154A59
:108CB000126822F814101348006830F814000544B4
:108CC000601C84B242F630208442E8DB2846FFF77D
:108CD000B6FC41EC1A0B9FED0C0B53EC102BFFF77D
:108CE000BCFB41EC190B9FED0A0B53EC102BFFF76B
:108CF00026FC41EC180BFFF7E2FC07490880BDECAD
:108D0000068B70BD3C020120000000000000F03F17
:108D1000000000000018C540480201200146002064
:108D200000BF0CE00A4A126832F8102031F8103007
:108D30001A44074B1B6823F81020421C90B242F6DD
:108D400030229042EEDB0122024B1A707047000085
:108D50003C0201204A02012010B50020044908808D
:108D600045F2604103480068FFF7C5FA10BD0000F6
:108D7000480201203C02012010B502F077FF08F004
:108D8000D1F90AF00FFA45F240600AF029FF1A49BA
:108D90004860486845F24061FFF7ADFA45F240602F
:108DA0000AF01EFF14490860086845F24061FFF7A9
:108DB000A2FA06F0CDFD06F0B7FF022005F0E0FFB5
:108DC000032005F0DDFF00F0F7FD07F075FE08F069
:108DD0003DF8052002F0E0FA08F092F9FFF750FEA6
:108DE00005490868FFF720FE06F066FD06F03EFD27
:108DF00006F09BFB10BD00000002012000BFFEE753
:108E000070B505460C461646042D15D007DC7DB11D
:108E1000012D0ED0022D0DD0032D3ED10BE0202DC3
:108E20000BD0212D1ED0222D35D0232D35D133E06E
:108E300034E033E032E031E030E02078617840EA3D
:108E40000120A17840EA0140E17840EA016015493B
:108E500008602079087160794871A079887100F004
:108E600007FA1BE00F48007820700E480088000ABF
:108E700060700C480068000CA0700A480068000E82
:108E8000E070084800792071064840796071054813
:108E90008079A07102E001E000E000BF00BF002087
:108EA00070BD00001C0101200020704710B5124861
:108EB000124908604FF4E130486000210F4881609A
:108EC000C160016181610C2141610021C16108F033
:108ED0005BFA0B4805F0DAFC08B100F0BAFB00229F
:108EE0000849094808F028FC07494439064808F0B1
:108EF0001CFC002010BD0000001001409055002017
:108F00000056002040000020A80B0120024600204F
:108F1000704700002DE9FC5F81468A469346002594
:108F20000220009032480078012804D0022809D09D
:108F3000032858D141E002202D49087000202D4916
:108F4000087051E000242EE0002629E006EBC41052
:108F50002949096831F81070FDB2380A0190C4EB54
:108F6000041009EB001030F81680D04505DDFF2D08
:108F700001DA6D1C08E0FF2506E0D84504DA002D73
:108F800001DD6D1E00E00025019845EA002087B252
:108F9000F2B2E1B23B461848006807F0C5FD761C06
:108FA000782ED3D3641C5C2CCED3032010490870D8
:108FB0001148006806F08EFE16E00E48007804287E
:108FC00008DA02200A4908700A480078401C09495A
:108FD000087007E001200649087000200549087064
:108FE0000120009000E000BF00BF0098BDE8FC9F9A
:108FF0004F02012050020120380201202DE9F047E4
:1090000092B0814648216846FFF775F90024002593
:10901000002600210F4688462A2411E039250BE05E
:10902000C4EB041009EB001030F815002DF8160001
:10903000701CC6B2681CC5B23F2DF1DB601CC4B207
:10904000302CEBDB002418E02646601CC5B210E093
:109050003DF815003DF81610884208DD2E463DF813
:1090600016A03DF814002DF816002DF814A0681C69
:10907000C5B2242DECDB601CC4B2232CE4DB01243C
:1090800006E03DF81400C71948F10008601CC4B29E
:10909000232CF6DB2222002338464146FFF7B0F8A6
:1090A0000746B8B212B0BDE8F08700002DE9F047DE
:1090B00080460C4616461F464FF0030929480078A3
:1090C00020B1012809D0022841D132E000202649F0
:1090D000087001202349087040E04046FFF78EFFEA
:1090E0000546B54203DD20782049087009E0BD42FD
:1090F00003DC20781E49087003E00220194908703B
:109100002CE019480078401C174908700846007880
:1091100014280ADA16490978144A1278881800EBDC
:10912000D071C1F34701217002E002200D4908709F
:1091300014E04FF0020900200A4908700C49087039
:10914000FF200A49087000200749087006E0002047
:109150000449087004490870814600BF00BF4846B2
:10916000BDE8F08752020120530201205502012080
:10917000540201202DE9F04105460E461746002411
:109180000C48007801280BD13A463146284606F0B3
:109190009BFC0446012C09D100200649087005E01B
:1091A0003A4631462846FFF7B5FE04462046BDE85C
:1091B000F0810000510201202DE9F04707460C46DE
:1091C00091461E464FF004082748007806283FD2F3
:1091D000DFE800F0030C151E27360820207004205D
:1091E0002149087001202149087039E009202070C8
:1091F00004201D49087002201C49087030E00A2034
:10920000207004201849087003201849087027E0CE
:109210000B202070042014490870052013490870A1
:109220001EE03846FFF7EAFE0546B54204DA0F486D
:1092300000780D49087002E005200B4908700FE026
:1092400000200A490870084908704FF0030807E039
:109250004FF000080020044908700449087000BF5E
:1092600000BF4046BDE8F0875602012057020120AA
:109270002B48007910B1022809D103E000212948C8
:10928000C16008E04FF400512648C16003E00021AE
:109290002448C16000BF00BF2148407920B10128A7
:1092A00006D002280ED108E000211E4801610DE021
:1092B0004FF4C0611B48016108E04FF48061194818
:1092C000016103E000211748016100BF00BF14489D
:1092D0008079072802D0082810D103E00021114826
:1092E00081600FE00F48006918B900210D488160C6
:1092F00003E04FF480510B48816003E000210948EE
:10930000816000BF00BF0648006806494860002130
:10931000044881610C2141610021C1617047000056
:109320001C0101209055002070B50546AC6BA06C67
:10933000406D022806D0012084F83500E06C40F032
:109340004000E064204600F073FB70BD70B5064637
:109350000025B46BA06B68B3A06C0068006800F4D3
:109360000025A06B00F0010078B975B1A06C006811
:10937000C568E26B082303FB02510022A06C00F0D9
:10938000E4FCA06B401EA0632FE0A06C00680068A6
:1093900000F4002048BBA06C00680569E26B08235C
:1093A00003FB02510122A06C00F0CFFCA06B401E19
:1093B000A0631AE0A06C0068006800F4002020B1EF
:1093C000D4E911010968C8600FE0A06C006800686A
:1093D00000F4002048B9656CE06B042101FB0050EB
:1093E000A16C09680861206CA063A06B216C8842A5
:1093F0000ED12068C06840F001002168C860206874
:10940000006800F00200022802D1012084F8350033
:1094100070BD000010B5024800F014FB10BD000044
:10942000800701207047000010B50249886C01F0E8
:10943000E5FC10BD8007012010B50249086E01F05F
:10944000DDFC10BD90550020014608781038182327
:10945000B0FBF3F20848805CC865032A05D90868A8
:109460006FF30900001D886503E008686FF30900C9
:109470008865886D70470000203E01080146002085
:109480008A6A8B69CBB932B1012A0DD0022A03D086
:10949000032A10D10EE000BFCB6A03F08073B3F152
:1094A000807F00D1012007E0CB6AB3F1C07F00D1FB
:1094B000012001E000E000BF34E08B69B3F5005FFC
:1094C0001AD132B1012A07D0022A03D0032A11D1BE
:1094D0000AE000BF01200EE0CB6A03F08073B3F115
:1094E000807F00D1012006E0CB6AB3F1C07F00D1BC
:1094F000012000E000BF15E032B1012A05D0022AA8
:1095000004D0032A0CD103E000BF00BF012008E013
:10951000CB6A03F08073B3F1807F00D1012000E0BB
:1095200000BF00BF7047000070B598B004460D46FC
:109530001646002001908021029189000391490084
:10954000049100210591069107914FF40031089193
:109550000021099103210A9100210B910C910A48E5
:109560000090684601F06EFD58B933462A46214600
:10957000684601F08FFE20B9C8220021684601F03C
:10958000D7FD18B070BD00001064024010B504682B
:1095900063608468402C04D10468A2600468E160C0
:1095A00003E00468A1600468E26010BD30B504689F
:1095B000246824F4802405682C600468636084684F
:1095C000402C04D10468A2600468E16003E00468F0
:1095D000A1600468E26030BD10B51C4890F83E0000
:1095E00001280ED11949087905F0F0FE17480079D5
:1095F0004A2802DB4A20154908710021134880F8E7
:109600003E1007F001F911480078012806D10F48F3
:10961000283007F03DFA00200C4908700B4890F8FC
:109620004A00012805D107F085FA0021074880F893
:109630004A10064890F84B00012805D107F0ECFAD3
:109640000021024880F84B1010BD0000A00101204D
:109650007047704710B5002201B909E0012901D116
:109660000A0205E0022901D10A0201E04FF440722A
:10967000154B1B6823F44073134C236023461B686F
:109680001343236023461B6823F0F803236023461B
:109690001B68782494FAA4F4B4FA84F400FA04F46D
:1096A00044F002042343084C236023461B6843F420
:1096B0008033236000BF00BF00BFBFF34F8F00BFE8
:1096C00000BF00BF10BD0000103C02400B4A1268F2
:1096D00022F44072094B1A601A4612681A601A4640
:1096E000126842F001021A60017000BF00BF00BFA3
:1096F000BFF34F8F00BF00BF00BF7047103C024058
:1097000010B50D49096821F440710B4C21602146C8
:10971000096841F4407121602146096841F0010166
:1097200021600260436000BF00BF00BFBFF34F8FE6
:1097300000BF00BF00BF10BD103C02400C4A1268C1
:1097400022F440720A4B1A601A46126842F4807280
:109750001A601A46126842F001021A60018000BFC6
:1097600000BF00BFBFF34F8F00BF00BF00BF7047F7
:10977000103C02400C4A126822F440720A4B1A60F4
:109780001A46126842F400721A601A46126842F0D1
:1097900001021A60016000BF00BF00BFBFF34F8F1E
:1097A00000BF00BF00BF7047103C02401D4800686A
:1097B00000F0020028B11C48806940F020001A49DE
:1097C00088611848006800F0100028B116488069C8
:1097D00040F01000144988611248006800F0200031
:1097E00028B11148806940F008000F4988610D4890
:1097F000006800F0400028B10B48806940F0040088
:10980000094988610748006800F0800028B10648CF
:10981000806940F0020004498861F2200149086033
:10982000704700000C3C02406402012070B5044601
:10983000002500201449886101F0CAFF054609E0AF
:10984000601C38B124B101F0C3FF401BA04201D914
:10985000032070BD0D48006800F480300028EFD16F
:109860000A48006800F0F20018B1FFF79FFF0120DE
:10987000EFE70648006800F0010010B1012003493D
:1098800008600020E5E70000640201200C3C024073
:1098900070B504461D460023B5F5804F13D154F82A
:1098A00022300C480340D1E9000640EA06108E68D9
:1098B00040EA06208E8940EA06408E693043034321
:1098C00044F8223003E06FF0704044F8220000209A
:1098D00070BD00000000F0CF10B5024600230868FC
:1098E00052F820301B480340D1E901042043CC68E2
:1098F00020430C6920434C6920438C692043CC6988
:1099000020430C6A20434C6A20438C6A2043CC6A73
:1099100020430C6B20438C6B20434C6B2043034350
:109920008868082801D143F04003086842F82030D5
:10993000086BB0F5801F05D1086818B110680C6B72
:1099400020431060086818B110684C6B2043106009
:10995000002010BD8004C0FF30B50346144600222D
:10996000601C53F8202002F04042D1E9000540EA93
:1099700005108D6840EA05208D8940EA0545088A72
:10998000401E45EA0055087D801E45EA00608D694D
:1099900028430243601C43F82020186800F480101C
:1099A00038B1586820F47002088A401E42EA00521A
:1099B0005A60002030BD000010B50E480E49086006
:1099C0004FF48270486000210B4881604FF4E061E1
:1099D000C1600021016141614FF40071816100218A
:1099E000C1610162416281620721C16204F0D4FA5F
:1099F00010BD0000005401405C09012070B50A4808
:109A00000468001D0568001D0668344454B108222E
:109A10000649204605F06AFD042204491031284613
:109A200005F064FD70BD0000107AFF1F7601012073
:109A300010B50446FFF704F810BD10B50446FFF753
:109A400001F810BD70B504462068056905F00400F2
:109A500004280ED121684861E06C40F00200E06407
:109A6000042084F835002348A16C0865A06C01F03F
:109A7000B0F905F0020002280ED121684861E06CBF
:109A800040F00100E064042084F835001948A16C1E
:109A90000865A06C01F09DF905F01000102804D1B4
:109AA00021684861204600F085F805F00800082884
:109AB00004D121684861204600F042F905F0010018
:109AC000B8B12068006800F00200022805D12068C3
:109AD000C06820F01E002168C8602068C06820F0BF
:109AE00001002168C8600120216848612046FFF715
:109AF000A4FF70BD2993000810B504460CB90120DD
:109B000010BD94F8350010B9204600F058F8022036
:109B100084F83500206800682549084021680860FD
:109B2000616960680843E168084321690843A168E6
:109B30000843A1690843216A0843616A0843A16A8E
:109B40000843E16A0843216B084321680968084318
:109B500021680860606810281DD1217F607F4FF464
:109B60007F4292FAA2F2B2FA82F290400843A17FB9
:109B70004FF47F0292FAA2F2B2FA82F291400843C5
:109B8000E17F4FF07F4292FAA2F2B2FA82F2914064
:109B90000843216888612068C06840F01E00216881
:109BA000C8600020E064012084F835000020A7E7A9
:109BB00007F0E0FF10B50446FEF77EFF10BD7047CA
:109BC0002DE9F84304460F4615461E464FF000089F
:109BD00000BF94F83400012802D10220BDE8F883C8
:109BE000012084F8340000BF022084F8350020688A
:109BF000006840F48040216808602068006820F018
:109C00000200216808602068006838432168086005
:109C10002448A16CC8632448A16CC8640020A16CCE
:109C20000865A0632064B6F5803F08D2226802F17F
:109C3000280133462A46A06C01F05FFB24E0194856
:109C4000A16C48640120A063E663656405E0E06BF5
:109C50004008E063A06B4000A063E06BB0F5803F7C
:109C6000F5D2A06B801EA063A06B2064E06B042182
:109C700001FB0058E06B0090226802F12801434686
:109C80002A46A06C00F06AF82068006840F00100E5
:109C90002168086000BF002084F8340000BF00BFC6
:109CA0009CE700004D9300082993000870B5044616
:109CB00022480068C0084FF47A71B0FBF1F000FB55
:109CC00001F5002600BF94F83400012801D10220DC
:109CD00070BD012084F8340000BF022084F83500F4
:109CE0002068006820F001002168086000BF281E7D
:109CF000A5F1010505D1E06C40F02000E0640326E9
:109D000005E02068006800F001000028EFD100BFE6
:109D10002068006820F4804021680860A06C01F091
:109D200003F8E06CE064012084F8350000BF0020F7
:109D300084F8340000BF3046CAE7000098010120D3
:109D400010B50446FEF7A2FF10BD034612B918680D
:109D5000C16001E018680161002070472DE9F047FB
:109D600004460E4617461D46DDF820804FF00009D8
:109D7000A068802804D1400060650120BDE8F0871C
:109D800000BF94F83400012801D10220F6E7012039
:109D900084F8340000BF94F83500012873D1022004
:109DA00084F83500002060652068006840F4802059
:109DB000216808602068056143463A4631462046DE
:109DC000FFF7E4FBFA49206888425DD9F949206829
:109DD000884201D1202052E0F54948392068884264
:109DE00001D120204BE0F34960312068884201D145
:109DF000202044E0EE4918312068884201D120201B
:109E00003DE0EC4918312068884201D1C01436E0A9
:109E1000E74930392068884201D1C0142FE0E54974
:109E200078312068884201D1C01428E0E0493031FF
:109E30002068884201D1C01421E0DE493031206819
:109E4000884202D14FF4001019E0D949183920682E
:109E5000884202D14FF4001011E0D64990312068B9
:109E6000884202D14FF4001009E0D14948312068FE
:109E7000884202D14FF4001001E04FF00060CC495D
:109E80004C39086020E1EFE3CA49A83120688842D4
:109E90005CD9C8492068884201D1202052E0C449D9
:109EA00048392068884201D120204BE0C149603107
:109EB0002068884201D1202044E0BD491831206843
:109EC000884201D120203DE0BA49183120688842FB
:109ED00001D1C01436E0B64930392068884201D13A
:109EE000C0142FE0B34978312068884201D1C014F2
:109EF00028E0AF4930312068884201D1C01421E008
:109F0000AC4930312068884202D14FF4001019E08A
:109F1000A74918392068884202D14FF4001011E097
:109F2000A44990312068884202D14FF4001009E022
:109F30009F4948312068884202D14FF4001001E067
:109F40004FF000609A4950390860BDE099494831A6
:109F5000206888425CD997492068884201D1202036
:109F600052E0934948392068884201D120204BE0D3
:109F7000904960312068884201D1202044E08C491A
:109F800018312068884201D120203DE089491831EC
:109F90002068884201D1C01436E0854930392068F4
:109FA000884201D1C0142FE082497831206888426C
:109FB00001D1C01428E07E4930312068884201D1A7
:109FC000C01421E07B4930312068884202D14FF42F
:109FD000001019E0764918392068884202D14FF400
:109FE000001011E0734990312068884202D14FF48B
:109FF000001009E06E4948312068884202D14FF4D0
:10A00000001001E04FF000606A491039C8605BE061
:10A0100068492068884201D1202052E064494839CB
:10A020002068884201D120204BE0624960312068DD
:10A03000884201D1202044E05D49183120688842DF
:10A0400001D120203DE05B4918312068884201D1D0
:10A05000C01436E0564930392068884201D1C01416
:10A060002FE0544978312068884201D1C01428E09B
:10A070004F4930312068884201D1C01421E04D4958
:10A0800030312068884202D14FF4001019E048496D
:10A0900018392068884202D14FF4001011E0454978
:10A0A00090312068884202D14FF4001009E0404905
:10A0B00048312068884202D14FF4001001E04FF08F
:10A0C00000603C49103988603949206888425CD971
:10A0D00038492068884201D1102052E0344948397B
:10A0E0002068884201D110204BE03249603120685D
:10A0F000884201D1102044E02D491831206888425F
:10A1000001D110203DE02B4918312068884201D14F
:10A11000001536E0264930392068884201D1001503
:10A120002FE0244978312068884201D1001528E0C9
:10A130001F4930312068884201D1001521E01D49B6
:10A1400030312068884202D14FF4801019E018495C
:10A1500018392068884202D14FF4801011E0154967
:10A1600090312068884202D14FF4801009E01049F4
:10A1700048312068884202D14FF4801001E04FF04E
:10A1800080600B494C39086020E10A49A8312068F9
:10A1900088425FD907492068884201D1102055E0E4
:10A1A000034948392068884206D110204EE000005B
:10A1B0005864024010600240F8492068884201D18A
:10A1C000102043E0F6492068884201D110203DE08C
:10A1D000F24948392068884201D1001536E0F0493B
:10A1E00048392068884201D100152FE0EB49183129
:10A1F0002068884201D1001528E0E949183120681B
:10A20000884201D1001521E0E449303920688842B4
:10A2100002D14FF4801019E0E149303920688842BA
:10A2200002D14FF4801011E0DC49303120688842BF
:10A2300002D14FF4801009E0D949303120688842BA
:10A2400002D14FF4801001E04FF08060D4496839AA
:10A250000860BBE0D1491839206888425BD9CF49F2
:10A2600060392068884201D1102050E0CC49603923
:10A270002068884201D1102049E0C84920688842FE
:10A2800001D1102043E0C6492068884201D1102046
:10A290003DE0C24948392068884201D1001536E0C6
:10A2A000BF4948392068884201D100152FE0BB49D9
:10A2B00018312068884201D1001528E0B8491831CA
:10A2C0002068884201D1001521E0B4493039206866
:10A2D000884202D14FF4801019E0B149303920682A
:10A2E000884202D14FF4801011E0AC49303120682F
:10A2F000884202D14FF4801009E0A949303120682A
:10A30000884202D14FF4801001E04FF08060A349F1
:10A310007039C8605AE0A14960392068884201D18B
:10A32000102050E09E4960392068884201D11020F9
:10A3300049E09A492068884201D1102043E09849B9
:10A340002068884201D110203DE0944948392068B6
:10A35000884201D1001536E0914948392068884289
:10A3600001D100152FE08D4918312068884201D1B4
:10A37000001528E08A4918312068884201D100156B
:10A3800021E0864930392068884202D14FF480109C
:10A3900019E0834930392068884202D14FF4801097
:10A3A00011E07E4930312068884202D14FF480109C
:10A3B00009E07B4930312068884202D14FF4801097
:10A3C00001E04FF080607549703988607449183930
:10A3D000206888425BD9714960392068884201D180
:10A3E000082050E06E4960392068884201D1082079
:10A3F00049E06A492068884201D1082043E0684961
:10A400002068884201D108203DE06449483920682D
:10A41000884201D1401536E06149483920688842B8
:10A4200001D140152FE05D4918312068884201D1E3
:10A43000401528E05A4918312068884201D140155A
:10A4400021E0564930392068884202D14FF400207B
:10A4500019E0534930392068884202D14FF4002076
:10A4600011E04E4930312068884202D14FF400207B
:10A4700009E04B4930312068884202D14FF4002076
:10A4800001E04FF000704649643908601FE143491C
:10A490004831206888425BD9404960392068884249
:10A4A00001D1082050E03E4960392068884201D13E
:10A4B000082049E039492068884201D1082043E05A
:10A4C00037492068884201D108203DE033494839A6
:10A4D0002068884201D1401536E03149483920686A
:10A4E000884201D140152FE02C491831206888425C
:10A4F00001D1401528E02A4918312068884201D14D
:10A50000401521E0254930392068884202D14FF4B6
:10A51000002019E0224930392068884202D14FF4E6
:10A52000002011E01D4930312068884202D14FF4EB
:10A53000002009E01A4930312068884202D14FF4E6
:10A54000002001E04FF00070154968390860BEE056
:10A5500012491839206888425DD91049603920684D
:10A56000884201D1082052E00D49603920688842B4
:10A5700001D108204BE009492068884201D1082018
:10A5800045E007492068884201D108203FE003499F
:10A5900048392068884205D1401538E07060024093
:10A5A00070640240FA492068884201D140152EE0CB
:10A5B000F8492068884201D1401528E0F44960310B
:10A5C0002068884201D1401521E0F24948392068CD
:10A5D000884202D14FF4002019E0ED49183120687B
:10A5E000884202D14FF4002011E0EA491831206876
:10A5F000884202D14FF4002009E0E5497831206813
:10A60000884202D14FF4002001E04FF00070E14990
:10A610008839C8605BE0DF4978392068884201D119
:10A62000082051E0DA4918392068884201D1082011
:10A630004AE0D84918392068884201D1082043E00F
:10A64000D34948312068884201D108203CE0D149F3
:10A6500060392068884201D1401535E0CC49206836
:10A66000884202D140152FE04EE3CA492068884253
:10A6700001D1401528E0C64960312068884201D1E7
:10A68000401521E0C34948392068884202D14FF47F
:10A69000002019E0BE4918312068884202D14FF4E9
:10A6A000002011E0BB4918312068884202D14FF4E4
:10A6B000002009E0B64978312068884202D14FF481
:10A6C000002001E04FF00070B24988398860B0493D
:10A6D0003031206888425BD9AE4978392068884299
:10A6E00001D1AD4850E0AA4918392068884201D10B
:10A6F000A94849E0A74918392068884201D1A648ED
:10A7000042E0A34948312068884201D1A2483BE099
:10A71000A04960392068884201D1801534E09C4905
:10A720002068884201D180152EE09A49206888422D
:10A7300001D1801528E0964960312068884201D116
:10A74000801521E0934948392068884202D14FF4AE
:10A75000802019E08E4918312068884202D14FF4D8
:10A76000802011E08B4918312068884202D14FF4D3
:10A77000802009E0864978312068884202D14FF470
:10A78000802001E04FF0807081491C39086020E191
:10A7900080493031206888425BD97E497839206809
:10A7A000884201D17C4850E07949183920688842B4
:10A7B00001D1794849E0774918392068884201D1A8
:10A7C000754842E0724948312068884201D1724898
:10A7D0003BE0704960392068884201D1801534E03F
:10A7E0006B492068884201D180152EE069492068B4
:10A7F000884201D1801528E065496031206888428F
:10A8000001D1801521E0634948392068884202D18E
:10A810004FF4802019E05E4918312068884202D147
:10A820004FF4802011E05B4918312068884202D142
:10A830004FF4802009E0564978312068884202D1DF
:10A840004FF4802001E04FF08070514920390860BA
:10A85000BFE050493039206888425BD94D4978398A
:10A860002068884201D14C4850E049491839206895
:10A87000884201D1484849E0464918392068884251
:10A8800001D1454842E0424948312068884201D11F
:10A8900041483BE03F4960392068884201D180153A
:10A8A00034E03B492068884201D180152EE03949C7
:10A8B0002068884201D1801528E035496031206840
:10A8C000884201D1801521E0324948392068884208
:10A8D00002D14FF4802019E02D49183120688842B8
:10A8E00002D14FF4802011E02A49183120688842B3
:10A8F00002D14FF4802009E0254978312068884250
:10A9000002D14FF4802001E04FF080702149883956
:10A91000C8605EE01F4978392068884201D11E482E
:10A9200054E01B4918392068884201D11A484DE08B
:10A93000184918392068884201D1174846E014495F
:10A9400048312068884201D113483FE011496039FD
:10A950002068884201D1801538E00D49206888427E
:10A9600001D1801532E00B492068884201D1801561
:10A970002CE0074960312068884201D1801525E02C
:10A98000044948392068884208D14FF480201DE0EE
:10A99000286402408860024004008000DF4920688B
:10A9A000884202D14FF4802010E0DD4920688842BF
:10A9B00002D14FF4802009E0D849603120688842F4
:10A9C00002D14FF4802001E04FF08070D449A039CB
:10A9D0008860D2491831206888425BD9D0499039C3
:10A9E0002068884201D1CF4850E0CC4930392068F6
:10A9F000884201D1CB4849E0C949303920688842B2
:10AA000001D1C84842E0C54930312068884201D1AF
:10AA1000C4483BE0C24978392068884201D14020CF
:10AA200034E0BE4918392068884201D140202DE029
:10AA3000BB4918392068884201D1402026E0B74937
:10AA400048312068884201D140201FE0B449603974
:10AA50002068884202D14FF4803017E0AF49206867
:10AA6000884202D14FF4803010E0AD49206888421E
:10AA700002D14FF4803009E0A84960312068884253
:10AA800002D14FF4803001E04FF48000A349343903
:10AA900008601CE1A2491831206888425BD9A049AE
:10AAA00090392068884201D19E4850E09B49303956
:10AAB0002068884201D19B4849E099493039206893
:10AAC000884201D1974842E0944930312068884259
:10AAD00001D194483BE0924978392068884201D1FD
:10AAE000402034E08D4918392068884201D1402047
:10AAF0002DE08B4918392068884201D1402026E09A
:10AB0000864948312068884201D140201FE08449AD
:10AB100060392068884202D14FF4803017E07F49C5
:10AB20002068884202D14FF4803010E07C492068D0
:10AB3000884202D14FF4803009E0784960312068C2
:10AB4000884202D14FF4803001E04FF48000734915
:10AB500038390860BBE072494839206888425BD9BF
:10AB60006F4990392068884201D16E4850E06B49A6
:10AB700030392068884201D16A4849E06849303953
:10AB80002068884201D1674842E06449303120683A
:10AB9000884201D163483BE06149783920688842A6
:10ABA00001D1402034E05D4918392068884201D144
:10ABB00040202DE05A4918392068884201D14020B0
:10ABC00026E0564948312068884201D140201FE0E4
:10ABD000534960392068884202D14FF4803017E031
:10ABE0004E492068884202D14FF4803010E04C4931
:10ABF0002068884202D14FF4803009E04749603133
:10AC00002068884202D14FF4803001E04FF4800088
:10AC10004349A039C8605AE04149903920688842C8
:10AC200001D1404850E03D4930392068884201D187
:10AC30003C4849E03A4930392068884201D13948D6
:10AC400042E0364930312068884201D135483BE046
:10AC5000334978392068884201D1402034E02F49B7
:10AC600018392068884201D140202DE02C4918393C
:10AC70002068884201D1402026E0284948312068D8
:10AC8000884201D140201FE0254960392068884270
:10AC900002D14FF4803017E020492068884202D169
:10ACA0004FF4803010E01E492068884202D14FF4F2
:10ACB000803009E0194960312068884202D14FF4A0
:10ACC000803001E04FF480001549A0398860206889
:10ACD000006840F01600216808602068406940F074
:10ACE000800021684861206C08B9A06C28B12068F8
:10ACF000006840F00800216808602068006840F0A3
:10AD000001002168086006E000BF002084F83400DC
:10AD100000BF4FF002094846FFF730B840640240D8
:10AD2000A06002400100800070B50446A56D00F0EF
:10AD30004FFD064694F83500022808D08020606553
:10AD400000BF002084F8340000BF012070BD2068DF
:10AD5000006820F01600216808602068406920F033
:10AD6000800021684861206C08B9A06C28B1206877
:10AD7000006820F00800216808602068006820F062
:10AD80000100216808600FE000F022FD801B05280B
:10AD90000AD92020606500BF002084F8340000BF7D
:10ADA000032084F83500D1E72068006800F0010036
:10ADB0000028E9D194F85C103F208840A86000BFCB
:10ADC000002084F8340000BF012084F83500002002
:10ADD000BCE7014691F83500022803D08020486581
:10ADE00001207047052081F835000868006820F0D0
:10ADF00001000A6810600020F3E70000F8B504467F
:10AE0000002000908D4800684FF41651B0FBF1F718
:10AE1000A56D2E6894F85C1008208840304098B1E9
:10AE20002068006800F0040070B12068006820F01D
:10AE300004002168086094F85C1008208840A8602D
:10AE4000606D40F00100606594F85C107C488840BB
:10AE5000304068B12068406900F0800040B194F84B
:10AE60005C1077488840A860606D40F00200606523
:10AE700094F85C107248C01C8840304070B1206863
:10AE8000006800F0020048B194F85C106C48C01CE7
:10AE90008840A860606D40F00400606594F85C1024
:10AEA00010208840304078B32068006800F0080027
:10AEB00050B394F85C1010208840A86020680068A7
:10AEC00000F4802080B12068006800F4002028B9D8
:10AED000206CC8B12046216C884715E0A06C98B161
:10AEE0002046A16C88470FE02068006800F480705D
:10AEF00028B92068006820F0080021680860206CEC
:10AF000010B12046216C884794F85C1020208840BE
:10AF10003040002865D02068006800F0100000284C
:10AF20005FD094F85C1020208840A86094F8350029
:10AF3000052828D12068006820F0160021680860E4
:10AF40002068406920F0800021684861206C08B9C1
:10AF5000A06C28B12068006820F008002168086013
:10AF600094F85C103F208840A86000BF002084F85F
:10AF7000340000BF012084F83500206D10B1204658
:10AF8000216D8847F8BD2068006800F4802080B1FA
:10AF90002068006800F4002028B9606C10B12046D9
:10AFA000616C88471DE0E06BD8B12046E16B8847B3
:10AFB00017E02068006800F4807068B920680068B5
:10AFC00020F010002168086000BF002084F83400E1
:10AFD00000BF012084F83500E06B10B12046E16B22
:10AFE0008847606D38B3606D00F00100F0B1052056
:10AFF00084F835002068006820F0010021680860AE
:10B0000000BF0098401C0090B84200D905E02068BD
:10B01000006800F001000028F3D100BF00BF00204D
:10B0200084F8340000BF012084F83500E06C10B1D2
:10B030002046E16C884700BFA4E70000980101208A
:10B04000010080002DE9F0410446002500F0C0FB1E
:10B05000074614B90120BDE8F081606A00B100BF65
:10B0600000BF002084F8340000BF022084F83500BF
:10B070002068006820F00100216808600AE000F004
:10B08000A7FBC01B052805D920206065032084F894
:10B090003500E0E72068006800F001000028EED1EC
:10B0A0002068056821480540D4E901010843E168AA
:10B0B00008432169084361690843A1690843E169BC
:10B0C0000843216A08430543606A042803D1D4E990
:10B0D0000B0108430543206805602068456925F099
:10B0E0000705606A0543606A04280DD1A06A05431C
:10B0F000E06A48B12046FEF7C1F928B140206065FA
:10B10000012084F83500A6E7206845612046FEF757
:10B110009BF9064694F85C103F208840B060002000
:10B120006065012084F83500002094E73F8010F02E
:10B130002DE9F05F0446884617464FF0000A00F0FC
:10B1400047FB834694F83500022809D080206065CB
:10B1500000BF002084F8340000BF0120BDE8F09F4C
:10B160002068006800F4807020B14FF48070606542
:10B170000120F3E7B8F1000F05D194F85C1020200E
:10B1800000FA01F904E094F85C10102000FA01F9CB
:10B19000A56D2E6844E0781C90B12FB100F018FB2B
:10B1A000A0EB0B00B8420BD92020606500BF002047
:10B1B00084F8340000BF012084F835000320CDE777
:10B1C0002E6894F85C1008208840304040B1606DD3
:10B1D00040F00100606594F85C1008208840A86089
:10B1E00094F85C102A488840304040B1606D40F0CF
:10B1F0000200606594F85C1025488840A86094F8C7
:10B200005C102348C01C8840304048B1606D40F05D
:10B210000400606594F85C101D48C01C8840A8605C
:10B2200006EA090020B9606D00F001000028B2D0E4
:10B23000606DA0B1606D00F0010080B12046FFF7A5
:10B2400073FD94F85C1030208840A86000BF002097
:10B2500084F8340000BF012084F835007EE7B8F19F
:10B26000000F0DD194F85C1030208840A86000BF1A
:10B27000002084F8340000BF012084F8350004E089
:10B2800094F85C1010208840A860504666E70000E3
:10B29000010080002DE9F04104460D4616461F4688
:10B2A0004FF0000800BF94F83400012802D10220BA
:10B2B000BDE8F081012084F8340000BF94F8350027
:10B2C000012811D1022084F83500002060653B463A
:10B2D000324629462046FEF769F92068006840F0AA
:10B2E00001002168086006E000BF002084F83400F7
:10B2F00000BF4FF002084046DAE72DE9F047044668
:10B300000D4616461F464FF00008D4F8589000BF6F
:10B3100094F83400012802D10220BDE8F087012012
:10B3200084F8340000BF94F8350001282BD10220A6
:10B3300084F83500002060653B46324629462046A9
:10B34000FEF734F994F85C103F208840C9F80800F3
:10B350002068006840F01600216808602068406995
:10B3600040F0800021684861206C28B120680068A6
:10B3700040F00800216808602068006840F0010083
:10B380002168086006E000BF002084F8340000BF98
:10B390004FF002084046C0E731B5002400F018FA2B
:10B3A000044600BF00F014FA001B00998842F9D34C
:10B3B00038BD00000348006840F0004001490860C3
:10B3C00000207047103C02400348006840F0010034
:10B3D0000149086000207047143C0240074800689B
:10B3E00000F0010030B1064804490C3908600548F6
:10B3F000086001E0012070470020FCE7143C024097
:10B400003B2A19087F6E5D4C2DE9F04106460F4638
:10B4100014461D464FF0010800BF2248007D012858
:10B4200002D10220BDE8F08101201E49087500BF4D
:10B430004CF25030FEF7FAF98046B8F1000F29D1EE
:10B4400036B1012E09D0022E0CD0032E15D10EE0FC
:10B45000E1B23846FEF73AF910E0A1B23846FEF7FD
:10B460006DF90BE021463846FEF784F906E02246E6
:10B470002B463846FEF744F900E000BF00BF4CF20F
:10B480005030FEF7D3F980460748006820F00100ED
:10B490000549086000BF00200249087500BF40460A
:10B4A000C0E7000064020120103C02400748006829
:10B4B00000F0004030B1064804490C3908600548E6
:10B4C000086001E0012070470020FCE7103C0240CA
:10B4D00023016745AB89EFCD00B587B02B480068E5
:10B4E00008B107B000BD01202849086000BF284806
:10B4F000006840F00100264908600846006800F036
:10B500000100019000BF00BF0120029002200390C3
:10B5100000200490032005900C20069002A91D48ED
:10B5200000F040F80C2201211A4800F04BF94FF6C8
:10B530008070029002200390002004900320059068
:10B540000C20069002A9144800F02CF84CF233703D
:10B5500002900220039000200490032005900C200C
:10B56000069002A90D4800F01DF84FF4805002909B
:10B570000220039000200490032005900C200690E8
:10B5800002A9074800F00EF800BFAAE790010120C9
:10B59000383802400014024000100240000C024003
:10B5A00000180240F8B502460B4600210025002491
:10B5B000002000BFE4E0012606FA01F51E6806EA55
:10B5C0000504AC4271D15E68022E02D05E68122E74
:10B5D00013D1CF0802F1200656F827004E07F70EC8
:10B5E0000F26BE40B0434F07FF0E1E69BE403043DA
:10B5F000CF0802F1200646F8270010684F00032606
:10B60000BE40B0431E7906F003064F00BE403043F3
:10B6100010605E68012E08D05E68022E05D05E685C
:10B62000112E02D05E68122E13D190684F000326AF
:10B63000BE40B0434F00DE68BE403043906050686B
:10B6400001268E40B0431E79C6F300168E4030436B
:10B650005060D0684F000326BE40B0434F009E6844
:10B66000BE403043D0605E6806F08056B6F1805F21
:10B67000A8D100BF444E366846F48046424F3E6033
:10B680003E46366806F48046009600BF00BF3F4E37
:10B690008F0856F827008E07370F0F26BE40B0439D
:10B6A0003B4EB24202D100262EE068E0394EB24253
:10B6B00001D1012628E0384EB24201D1022623E012
:10B6C000364EB24201D103261EE0354EB24201D1C0
:10B6D000042619E0334EB24201D1052614E0324E61
:10B6E000B24201D106260FE0304EB24201D1072608
:10B6F0000AE02F4EB24201D1082605E02D4EB2429B
:10B7000001D1092600E00A268F073F0FBE403043D3
:10B710001E4E8F0846F82700274E3068A0435E680B
:10B7200006F48036B6F5803F00D12043224E3060CB
:10B73000361D3068A0435E6806F40036B6F5003F5B
:10B7400000D120431C4E361D3060361D3068A043AA
:10B750005E6806F48016B6F5801F00D12043164EB1
:10B7600008363060361D3068A0435E6806F4001667
:10B77000B6F5001F00D120430F4E0C363060491C37
:10B780001029FFF418AFF8BD4438024008380140D2
:10B79000000002400004024000080240000C024089
:10B7A000001002400014024000180240001C024039
:10B7B0000020024000240240003C014042694A400F
:10B7C000426170470AB1816101E00B0483617047F7
:10B7D00001480068704700000000012010B50446D1
:10B7E0000CB9012010BD242084F8410020680068B5
:10B7F00020F0010021680860204600F02DFA0020AA
:10B80000606484F84100206384F8420000BF84F83B
:10B81000400000BF00BFE5E7014691F841007047D6
:10B8200010B504460CB9012010BD94F8410028B9A8
:10B83000002084F84000204600F00FFA242084F80D
:10B8400041002068006820F00100216808606068FD
:10B8500020F07060216808612068806820F4004052
:10B8600021688860E068012805D1A06840F40040A4
:10B870002168886004E0A06840F404402168886082
:10B88000E068022802D18002216848602068406890
:10B8900013490843216848602068C06820F40040CC
:10B8A0002168C860D4E904010843A16940EA012085
:10B8B0002168C860D4E9070108432168086020684E
:10B8C000006840F0010021680860002060642020CA
:10B8D00084F841000020206384F8420000BFA3E701
:10B8E000008000022DE9FC5F0446894692469B4693
:10B8F000DDE90C780E9E002594F8410020287DD1CA
:10B9000017B1B8F1000F02D10120BDE8FC9F00BFC4
:10B9100094F84000012801D10220F6E7012084F8C4
:10B92000400000BFFFF754FF054619230122D10351
:10B930002046009503F0FEFB08B10320E5E7222036
:10B9400084F84100402084F842000020606467626F
:10B95000A4F82A8060635B46524649462046CDE9FA
:10B96000006503F043FB80B1606C042806D100BF82
:10B97000002084F8400000BF0120C6E700BF00207F
:10B9800084F8400000BF0320BFE7608DFF280DD979
:10B99000FF2020854FF41050009094F828204FF09D
:10B9A00080734946204603F0ADFB0CE0608D208596
:10B9B0004FF41050009094F828204FF0007349463F
:10B9C000204603F09FFB00BF33460022042120469F
:10B9D000009503F0AFFB08B1032096E72068406AAA
:10B9E000C1B2626A501C60621170208D401E2085B9
:10B9F000608D401E6085208D48BB00E04BE0608D6F
:10BA000028B33346002280212046009503F092FBA4
:10BA100008B1032079E7608DFF280CD9FF2020852D
:10BA20000020009094F828204FF08073494620466B
:10BA300003F068FB0BE0608D20850020009094F8F7
:10BA400028204FF000734946204603F05BFB608DD1
:10BA50000028B9D12A463146204603F096FB30B182
:10BA6000606C042801D101204FE703204DE720201E
:10BA70002168C8612068406808490840216848601A
:10BA8000202084F84100002084F8420000BF84F8A0
:10BA9000400000BF39E7022037E7000000E800FE61
:10BAA0002DE9FC5F0446894692469B46DDE90C7809
:10BAB0000E9E002594F8410020286ED117B1B8F1F0
:10BAC000000F02D10120BDE8FC9F00BF94F84000A8
:10BAD000012801D10220F6E7012084F8400000BFD0
:10BAE000FFF776FE054619230122D1032046009573
:10BAF00003F020FB08B10320E5E7212084F8410092
:10BB0000402084F84200002060646762A4F82A8024
:10BB100060635B46524649462046CDE9006503F026
:10BB2000ABFA80B1606C042806D100BF002084F815
:10BB3000400000BF0120C6E700BF002084F840009D
:10BB400000BF0320BFE7608DFF280CD9FF202085B0
:10BB50000020009094F828204FF08073494620463A
:10BB600003F0D0FA0BE0608D20850020009094F85F
:10BB700028204FF000734946204603F0C3FA00BF67
:10BB80002A463146204603F02BFB38B1606C04286E
:10BB900001D1012097E7032095E759E0616A481C2D
:10BBA0006062087821688862608D401E6085208D03
:10BBB000401E2085208D38BB608D28B3334600227F
:10BBC00080212046009503F0B5FA08B103207AE7FA
:10BBD000608DFF280CD9FF2020850020009094F86C
:10BBE00028204FF080734946204603F08BFA0BE083
:10BBF000608D20850020009094F828204FF000737D
:10BC00004946204603F07EFA608D0028B8D12A46C6
:10BC10003146204603F0B9FA30B1606C042801D1F6
:10BC2000012050E703204EE720202168C8612068EA
:10BC300040680849084021684860202084F8410095
:10BC4000002084F8420000BF84F8400000BF3AE7BB
:10BC5000022038E700E800FE70477047024800689D
:10BC6000401C0149086070470000012010B50848D9
:10BC7000006840F4007006490860032000F0F8F8FE
:10BC8000002000F007F800F07DF8002010BD000053
:10BC9000003C024070B50446074800684FF47A71D2
:10BCA000B0FBF1F5284602F09EFD00222146501E11
:10BCB00000F0A0F8002070BD980101204178154ADD
:10BCC00011600178F9B1121D41681160017B09070B
:10BCD000C27A41EA0261827A41EAC241427B41EA88
:10BCE0008241827B41EA4241C27B41EA0241427A7F
:10BCF00041EA0221027A41EA420102781143054AEF
:10BD00000832116005E00021024A121D1160121D67
:10BD10001160704798ED00E000BF00BF00BFBFF3A7
:10BD20005F8F00BF00BF00BF0548006820F480306F
:10BD30000349086000200249703108607047000024
:10BD400024ED00E040F001010D4A11600C4970390A
:10BD5000096841F480310A4A703A116000BF00BF9F
:10BD600000BFBFF34F8F00BF00BF00BF00BF00BFC9
:10BD700000BFBFF36F8F00BF00BF00BF7047000060
:10BD800094ED00E010B5032000F072F80022114697
:10BD90006FF00B0000F02EF8002211466FF00A0041
:10BDA00000F028F8002211466FF0090000F022F898
:10BDB00000221146501F00F01DF800221146101FEE
:10BDC00000F018F800221146901E00F013F800222F
:10BDD0001146501E00F00EF810BD00BF00F01F020B
:10BDE000012191404209920002F1E022C2F80011C3
:10BDF00000BF70472DE9F05F80460D4616460027CC
:10BE000003F046FE074639462A46334601F007004E
:10BE1000C0F1070ABAF1040F02D94FF0040A01E099
:10BE2000C0F1070AD14600F1040ABAF1070F02D2A5
:10BE30004FF0000A01E0A0F1030AD4464FF0010AD6
:10BE40000AFA09FAAAF1010A0AEA020A0AFA0CFA3B
:10BE50004FF0010B0BFA0CFBABF1010B0BEA030BE0
:10BE60004AEA0B042146404603F01AFEBDE8F09F63
:10BE700000BF00F00702064B19684FF6FF03194098
:10BE8000044B0B4343EA0221014B196000BF70478A
:10BE90000CED00E00000FA0500BF00BF00BF00BFCE
:10BEA00000BFBFF34F8F00BF00BF00BF094800684D
:10BEB00000F4E06008490843001D0649086000BF1F
:10BEC00000BF00BFBFF34F8F00BF00BF00BF00BF68
:10BED00000BFFDE70CED00E00000FA0501460A682E
:10BEE0000120C1F8F403002081F8EC03906940F0D0
:10BEF00000609061506D024B184350650020704700
:10BF0000030000107047024610684162002070472D
:10BF1000F0B503461446002500221868426A21B98C
:10BF200042EA04401E68B06219E01868806A02EBB9
:10BF30001042002508E0186800F5827050F82500CE
:10BF400002EB1042681CC5B2481EA842F3DC42EA6C
:10BF50000447186800F582704E1E40F826700020D5
:10BF6000F0BD10B50446D4F8FC0305F0E1FE10BDA9
:10BF700070B504460D46C5EBC50304F1380101EB6D
:10BF80008301CA682946D4F8FC0305F021FE70BD80
:10BF900070B504460D46C5EBC50304F5FC7101EB15
:10BFA0008301CA682946D4F8FC0305F07EFE70BD03
:10BFB00010B50446D4F8FC0305F0BDFE10BD70B505
:10BFC00004460D4605F08000802808D105F07F006A
:10BFD000C0EBC00104F1380000EB810607E005F07A
:10BFE0007F00C0EBC00104F5FC7000EB810605F09A
:10BFF0007F00307005F08000C009707000BF94F8B9
:10C00000B803012801D1022070BD012084F8B803D3
:10C0100000BF3146206806F01DFC00BF002084F8F8
:10C02000B80300BF00BFEFE770B504460D4605F04A
:10C030008000802808D105F07F00C0EBC00104F12A
:10C04000380000EB810605E0C5EBC50104F5FC7086
:10C0500000EB81060020B07005F07F003070C5F362
:10C06000C010707000BF94F8B803012801D10220FD
:10C0700070BD012084F8B80300BF3146206806F087
:10C0800041FE00BF002084F8B80300BF00BFEFE707
:10C09000024601F00F00C0EBC00302F5FC7000EB9C
:10C0A0008300008B80B270472DE9F04705460E46AD
:10C0B00090461F464FF0000906F08000802808D106
:10C0C00006F07F00C0EBC00105F1380000EB8104F1
:10C0D00007E006F07F00C0EBC00105F5FC7000EB47
:10C0E000810406F07F00207006F08000C0096070B7
:10C0F000C4F80880E770607808B12078E080022FEB
:10C1000001D10020207100BF95F8B803012802D1A9
:10C110000220BDE8F087012085F8B80300BF214662
:10C12000286806F0CBF900BF002085F8B80300BFEF
:10C130004846EEE72DE9F04104460E46174698467C
:10C1400006F07F00C0EBC00104F5FC7000EB810538
:10C15000EF60C5F814800020A861687006F07F00C9
:10C1600028702069012800D12F6106F07F0028B9CE
:10C17000227C2946206806F0CDFC04E0227C29467A
:10C18000206806F049FE0020BDE8F08170B5044645
:10C190000D4605F08000802808D105F07F00C0EB37
:10C1A000C00104F1380000EB810605E0C5EBC501D4
:10C1B00004F5FC7000EB81060120B07005F07F00F3
:10C1C0003070C5F3C010707000BF94F8B803012838
:10C1D00001D1022070BD012084F8B80300BF3146B0
:10C1E000206806F0D3FD05F07F0028B9217C04F516
:10C1F0006F72206806F064FD00BF002084F8B80369
:10C2000000BF00BFE6E72DE9F04104460E461746A1
:10C21000984606F07F00C0EBC00104F1380000EB47
:10C220008105EF60C5F814800020A86101206870C6
:10C2300006F07F0028702069012800D12F6106F0E8
:10C240007F0028B9227C2946206806F063FC04E0C0
:10C25000227C2946206806F0DFFD0020BDE8F08141
:10C260002DE9FC5F044626684FF0000B002001908A
:10C2700080460025009081468246FE4F206806F0E9
:10C280008BFF002868D1206806F0D9FF08B9BDE807
:10C29000FC9F206806F0D3FF00F00200022801D1C5
:10C2A00021684861206806F0CAFF00F40020B0F55C
:10C2B000002F7DD10025206806F097FF019082E0D5
:10C2C000019800F00100002879D0E9B2206806F05A
:10C2D000ABFF804608F00100E8B3012106F53060AD
:10C2E00000EB45108160206901282BD1C5EBC50109
:10C2F00004F5FC7000EB8100816806F5306000EB0E
:10C3000045100069C0F31200091AC5EBC50204F517
:10C31000FC7000EB82008161C5EBC50104F5FC7087
:10C3200000EB8100C5EBC502C16804F5FC7000EBB1
:10C33000820080680144C5EBC50204F5FC7000EB87
:10C340008200C160E9B22046FFF722FE2069012881
:10C3500011D105B901E00EE0DAE2C5EBC50104F543
:10C36000FC7000EB8100406928B904F56F7201216F
:10C37000206806F0A5FC08F00800082808D120462F
:10C3800000F004FD082106F5306000EB45108160E7
:10C3900008F01000102805D1102106F5306000EBE0
:10C3A0004510816008F02000202808D1202101E0FC
:10C3B0000DE004E006F5306000EB451081606D1C77
:10C3C000019840080190019800287FF479AF206817
:10C3D00006F035FF00F48020B0F5802F7DD1206875
:10C3E00006F0FAFE0190002585E0019800F00100BA
:10C3F00000287CD0E9B2206806F000FF804608F0F3
:10C400000100E8B30120A840009040F634008059B4
:10C410000099884340F634018851012106F51060E7
:10C4200000EB451081602069012815D1C5EBC501DD
:10C4300004F1380000EB8100C5EBC502C16804F1CE
:10C44000380000EB820080680144C5EBC50204F1AE
:10C45000380000EB8200C160E9B22046FFF788FD9A
:10C460002069012810D15DB9C5EBC50104F1380080
:10C4700000EB8100406918B904F56F72012100E0FA
:10C4800002E0206806F01CFC08F00800082805D12E
:10C49000082106F5106000EB4510816008F01000DF
:10C4A000102805D1102106F5106000EB45108160C1
:10C4B00008F04000402805D1402106F5106000EB4F
:10C4C0004510816008F00200022805D1022106F51E
:10C4D000106000EB4510816001E010E007E008F01B
:10C4E0008000802803D12946204603F0E7FC6D1C1C
:10C4F000019840080190019800287FF476AF2068E9
:10C5000006F09DFE00F00040B0F1004F1AD140F659
:10C510000400805920F0010140F60400815194F894
:10C52000EC03012807D1002084F8EC030021204609
:10C53000FFF7E8FC02E0204600F001FC4FF000406D
:10C5400021684861206806F07AFE00F40060B0F5CA
:10C55000006F0CD140F60800805900F0010010B1C6
:10C56000204600F036FC4FF40060216848612068E6
:10C5700006F065FE00F00060B0F1006F17D14FF0DB
:10C5800000602168486194F8EC0368B9012084F8E0
:10C59000EC032068406DC0F38300C4F8F003012170
:10C5A0002046FFF7AFFC02E0204600F012FC2068B6
:10C5B00006F045FE00F48050B0F5805F5DD140F696
:10C5C0000400805920F0010140F60400815110213F
:10C5D000206806F0A7FD4FF0000B0CE0FF2106F5E8
:10C5E000106000EB4B10816006F5306000EB4B10E3
:10C5F00081600BF1010B60685845EFD84FF0FF31B7
:10C6000040F618008151001D805940F0011140F69C
:10C610001C008151206B70B1D6F8840840F00B01EA
:10C62000C6F8841840F64400805940F00B0140F6EB
:10C63000440081510EE040F61400805940F02B0177
:10C6400040F614008151001F805940F00B014FF457
:10C6500001608151D6F8000820F4FE60C6F8000899
:10C66000217C04F56F72206806F02AFB4FF480509D
:10C67000216801E000C2EB0B4861206806F0DFFD95
:10C6800000F40050B0F5005F7AD1206805F078FF23
:10C690002068C06820F470502168C860206806F0E7
:10C6A00059FD58B90021E1604FF4007161612068C3
:10C6B000C06840F410502168C86082E00321E16046
:10C6C0004021616101F03AF907469248874209D357
:10C6D0009148874206D22068C06840F470502168B3
:10C6E000C8606EE08C48874209D38C48874206D2E6
:10C6F0002068C06840F460502168C86061E08748E5
:10C70000874209D38648874206D22068C06840F431
:10C7100050502168C86054E08148874209D381485D
:10C72000874206D22068C06840F440502168C86043
:10C7300047E07C48874209D37B48874206D220687D
:10C74000C06840F430502168C8603AE076488742BB
:10C7500009D37648874206D22068C06840F420504A
:10C760002168C8602DE0714887420AD3704887422B
:10C7700007D22068C06840F410502168C86020E0EB
:10C7800026E06B48874209D36A48874206D2206870
:10C79000C06840F400502168C86012E065488742D4
:10C7A00009D36548874206D22068C06840F4E0504B
:10C7B0002168C86005E02068C06840F4C050216866
:10C7C000C860204600F0A2FA4FF40050216848618A
:10C7D000206806F034FD00F01000102845D12068D4
:10C7E000806920F0100021688861D6F8209009F057
:10C7F0000F00C0EBC00104F5FC7000EB810AC9F327
:10C80000434002281AD147F6F07009EA000030B31D
:10C81000C9F30A123046DAF80C1006F016FDC9F317
:10C820000A11DAF80C000844CAF80C00C9F30A111E
:10C83000DAF818000844CAF8180010E0C9F34340B9
:10C8400006280CD1082204F56F71304606F0FDFC75
:10C85000C9F30A11DAF818000844CAF81800206869
:10C86000806940F0100021688861206806F0E7FCCC
:10C8700000F00800082805D1204600F067FA0820DB
:10C8800021684861206806F0DAFC00F48010B0F5F9
:10C89000801F07D1E9B2204600F050F84FF4801015
:10C8A00021684861206806F0CAFC00F40010B0F569
:10C8B000001F07D1E9B2204600F049F84FF40010FC
:10C8C00021684861206806F0BAFC00F08040B0F1B1
:10C8D000804F06D12046FFF744FB4FF0804021688F
:10C8E0004861206806F0ABFC00F0040004280FD17A
:10C8F0002068D0F8049009F00400042802D12046F2
:10C90000FFF756FB2068406840EA0900216848604C
:10C9100000BFBCE4C0ACD800C0E1E4000024F400D7
:10C9200080730601A0491A01002D310140A44C0179
:10C9300000366E0120ABA6010048E80170B5044640
:10C940000D462946D4F8FC0305F05AFA70BD70B5BF
:10C9500004460D462946D4F8FC0305F054FA70BD90
:10C9600030B58BB00446002514B901200BB030BDA2
:10C97000032084F8B903204600F09AF8206806F0F6
:10C98000C1F8282204F110016846FBF79BFC94E8EB
:10C990000F0005F001FF0021206806F06AFC002569
:10C9A00030E00121C5EBC50204F1380000EB820044
:10C9B0004170C5EBC50204F1380000F82250C5EB08
:10C9C000C50200EB8200C5800021C5EBC50204F161
:10C9D000380000EB8200C170C5EBC50204F13800DD
:10C9E00000EB82008160C5EBC50204F1380000EB6A
:10C9F0008200C160C5EBC50204F1380000EB820083
:10CA000041616D1C0F2DCCD3002536E00021C5EB14
:10CA1000C50204F5FC7000EB82004170C5EBC50255
:10CA200004F5FC7000F82250C5EBC50204F1380093
:10CA300000EB8200C580C5EBC50204F5FC7000EB7D
:10CA40008200C170C5EBC50204F5FC7000EB8200EA
:10CA50008160C5EBC50204F5FC7000EB8200C1608B
:10CA6000C5EBC50204F5FC7000EB82004161206853
:10CA700000F5827040F825106D1C0F2DC6D32822BA
:10CA800004F110016846FBF71DFC94E80F0005F067
:10CA900053FF012084F8B903606A012802D12046BF
:10CAA000FFF71CFA206805F038FF00205EE7000061
:10CAB00010B588B004462068B0F1A04F5ED100BF29
:10CAC0008B48006840F0010089490860084600680A
:10CAD00000F00100029000BF00BF4FF4C05003906F
:10CAE0000220049000200590032006900A20079061
:10CAF00003A98048FEF756FDE06A012808D14002EC
:10CB0000039000200490059003A97A48FEF74AFD9F
:10CB10004FF48060039012200490012005900A20B9
:10CB2000079003A97348FEF73DFD00BF7048001D44
:10CB3000006840F080006E49091D086008460068E2
:10CB400000F08000029000BF00BF69481430006808
:10CB500040F480406649143108600846006800F4DB
:10CB60008040019000BF00BF00BF0022062143208B
:10CB7000FFF740F94320FFF730F9B6E05E4920683F
:10CB80008842FAD100BF5A48006840F00100584975
:10CB900008600846006800F00100029000BF00BF76
:10CBA00000BF0846006840F00200086008460068C0
:10CBB00000F00200029000BF00BF00BF08460068FE
:10CBC00040F0040008600846006800F0040002908D
:10CBD00000BF00BF00BF0846006840F0800008604A
:10CBE0000846006800F08000029000BF00BF00BF50
:10CBF0000846006840F4807008600846006800F449
:10CC00008070029000BF00BF20200390022004909B
:10CC100000200590032006900A20079003A93548BC
:10CC2000FEF7C0FC0820039002200490002005902D
:10CC3000032006900A20079003A92E48FEF7B2FCB5
:10CC400043F62340039002200490002005900A2020
:10CC5000079003A92948FEF7A5FC012003900220B4
:10CC60000490002005900A20079003A92448FEF7AD
:10CC700099FC1020039002200490002005900A20C7
:10CC8000079003A91F48FEF78DFC4FF40060039046
:10CC900002200490002005900A20079003A91A485A
:10CCA000FEF780FC00BF1248006840F08040104949
:10CCB00008600846006800F08040029000BF00BF96
:10CCC00000BF0846006840F0005008600846006851
:10CCD00000F00050029000BF00BF002206214D204E
:10CCE000FFF788F84D20FFF778F808B010BD000076
:10CCF00030380240000002400000044000040240BE
:10CD000000080240001C02400020024070B50446AA
:10CD10000125E06810B1022804D101E0002503E0FC
:10CD2000012501E0012500BF00BFD4F8FC0305F098
:10CD30008DF82946D4F8FC0305F0C2F870BD10B593
:10CD40000446D4F8FC0305F0A3F810BD10B5044662
:10CD5000D4F8FC0305F0A3F810BD70B504460D46E9
:10CD600000BF94F8B803012801D1022070BD012052
:10CD700084F8B80300BF2946206806F092FA00BF85
:10CD8000002084F8B80300BF00BFEFE710B50446E9
:10CD900004F56F71D4F8FC0305F0A0F810BD10B5D0
:10CDA000044600BF94F8B803012801D1022010BD49
:10CDB000012084F8B80300BF206805F09FFD2068BB
:10CDC00006F092F900BF002084F8B80300BF00BF4E
:10CDD000EDE710B50446D4F8FC0305F0C8F810BD23
:10CDE00038B5002400BF2048006840F080501E493C
:10CDF00008600846006800F08050009000BF00BF47
:10CE00001A48006840F4803018490860FEF7E0FCDA
:10CE1000044607E0FEF7DCFC001BB0F57A7F01D981
:10CE2000032038BD1148406800F48030B0F5803FE1
:10CE3000F0D10E48006840F400300C490860FEF75D
:10CE4000C7FC044607E0FEF7C3FC001BB0F57A7F81
:10CE500001D90320E5E70548406800F40030B0F54B
:10CE6000003FF0D10020DCE7403802400070004075
:10CE70002DE9F8430446002600250027A846A946C8
:10CE8000207800F0010088B100BFFE48006820F45F
:10CE90000000FC49086008460068616B0843F949D6
:10CEA000086000BF606B08B94FF00108206800F40B
:10CEB0000020B0F5002F13D1F2488430006820F430
:10CEC0004010E16B0843EF4984310860E06BB0F536
:10CED000801F01D14FF00108E06B08B94FF0010944
:10CEE000206800F48010B0F5801F13D1E54884302D
:10CEF000006820F44000216C0843E2498431086056
:10CF0000206CB0F5800F01D14FF00108206C08B9FA
:10CF10004FF00109206800F08070B0F1807F01D1EE
:10CF20004FF00108207800F02000202870D100BFC9
:10CF3000D4483830006840F08050D2493831086019
:10CF40000846006800F08050009000BF00BFCE4847
:10CF5000006840F48070CC490860FEF739FC064652
:10CF600007E0FEF735FC801B642802D90320BDE8EA
:10CF7000F883C548006800F480700028F1D0C148EB
:10CF80006830006800F4407585B3208E00F440706E
:10CF9000A8422BD0BB486830006820F44075B948DF
:10CFA0006830006840F48030B6496831086008464F
:10CFB000006820F48030086008460560006800F0D2
:10CFC000010098B1FEF704FC064608E0FEF700FCFD
:10CFD000801B41F28831884201D90320C7E7A94864
:10CFE00068300068C0F340000028EFD000BF208EFA
:10CFF00000F44070B0F5407F0BD1A248006820F4E7
:10D00000F810A24A216B114008439E49086006E0CF
:10D0100010E09C48006820F4F8109A49086099488C
:10D0200068300068218EC1F30B01084395496831CF
:10D03000086000BF207800F01000102810D100BF59
:10D0400090488430006820F080708E4984310860F8
:10D0500008460068A16B08438A498431086000BF14
:10D06000208800F48040B0F5804F09D18548883091
:10D07000006820F44030616E0843824988310860BE
:10D08000208800F40040B0F5004F09D17D48883079
:10D09000006820F44020A16E08437A498831086076
:10D0A000206800F48030B0F5803F09D175488830A1
:10D0B000006820F44010E16E08437249883108602E
:10D0C000206800F40030B0F5003F09D16D48883089
:10D0D000006820F44000216F08436A4988310860E5
:10D0E000207800F04000402809D166488830006868
:10D0F00020F00300616C08436249883108602078A1
:10D1000000F08000802809D15E488830006820F057
:10D110000C00A16C08435B4988310860208800F44A
:10D120008070B0F5807F09D156488830006820F0C3
:10D130003000E16C0843534988310860208800F4CE
:10D140000070B0F5007F09D14E488830006820F0AB
:10D15000C000216D08434B4988310860208800F4E5
:10D160008060B0F5806F09D146488830006820F4AF
:10D170004070616D0843434988310860208800F49D
:10D180000060B0F5006F09D13E488830006820F497
:10D190004060A16D08433B4988310860208800F455
:10D1A0008050B0F5805F09D136488830006820F49F
:10D1B0004050E16D0843334988310860208800F40D
:10D1C0000050B0F5005F09D12E488830006820F487
:10D1D0004040216E08432B4988310860206800F4E4
:10D1E0008000B0F5800F09D126488830006820F013
:10D1F0008060A16F0843234988310860206800F4EB
:10D200000010B0F5001F0FD11E488830006820F0D4
:10D210000060E16F08431B4988310860E06FB0F19E
:10D22000006F01D14FF00109207800F008000828B4
:10D2300001D14FF00109206800F48020B0F5802F63
:10D2400009D110488830006820F04070616F0843B1
:10D250000C4988310860206800F40000B0F5000F28
:10D260000AD108488830006820F08050D4F8801037
:10D270000843044988310860B8F1010F0BD02068D9
:10D2800006E000000838024000700040FFFCFF0F7D
:10D29000B0F1007F7ED1FE48006820F08060FC493C
:10D2A0000860FEF795FA064606E0FEF791FA801B45
:10D2B000642801D903205AE6F5480068C0F3C0602D
:10D2C0000028F2D1207800F00100E8B3606BD8BBF1
:10D2D000EF488430006800F440304FF4403191FA58
:10D2E000A1F1B1FA81F120FA01F5E9488430006832
:10D2F00000F070604FF0706191FAA1F1B1FA81F124
:10D3000020FA01F747F6C07191FAA1F1B1FA81F163
:10D31000606888404FF4403191FAA1F1B1FA81F18F
:10D3200005FA01F108434FF0706191FAA1F1B1FAE9
:10D3300081F107FA01F108434FF0E04292FAA2F2BC
:10D34000B2FA82F2A16800E004E091400843D049BB
:10D3500084310860206800F40020B0F5002F03D16C
:10D36000E06BB0F5801F09D0206800F48010B0F5A4
:10D37000801F50D1206CB0F5800F4CD1C448843050
:10D38000006800F440304FF4403191FAA1F1B1FA55
:10D3900081F100E0C8E020FA01F5BD488430006862
:10D3A00000F0E0404FF0E04191FAA1F1B1FA81F1D3
:10D3B00020FA01F747F6C07191FAA1F1B1FA81F1B3
:10D3C000606888404FF4403191FAA1F1B1FA81F1DF
:10D3D00005FA01F108434FF0706292FAA2F2B2FA34
:10D3E00082F2E168914008434FF0E04191FAA1F1E7
:10D3F000B1FA81F107FA01F10843A54984310860C7
:10D40000A3488C30006820F01F00616A491E084361
:10D410009F498C310860206800F08070B0F1807FF7
:10D420003FD19B488430006800F070604FF070611D
:10D4300091FAA1F1B1FA81F120FA01F59448843012
:10D44000006800F0E0404FF0E04191FAA1F1B1FA3C
:10D4500081F120FA01F747F6C07191FAA1F1B1FA12
:10D4600081F1606888404FF4403292FAA2F2B2FA39
:10D4700082F22169914008434FF0706191FAA1F165
:10D48000B1FA81F105FA01F108434FF0E04191FA58
:10D49000A1F1B1FA81F107FA01F108437C49843125
:10D4A0000860206800F00070B0F1007F25D147F6D9
:10D4B000C07191FAA1F1B1FA81F1606888404FF42E
:10D4C000403292FAA2F2B2FA82F221699140084304
:10D4D0004FF0706292FAA2F2B2FA82F2E1689140E1
:10D4E00008434FF0E04292FAA2F2B2FA82F2A16847
:10D4F000914008436649843108606548006840F0FF
:10D50000806063490860FEF763F9064606E0FEF7AF
:10D510005FF9801B642801D9032028E55C48006876
:10D52000C0F3C0600028F2D0B9F1010F7ED1584895
:10D53000006820F0805056490860FEF749F9064619
:10D5400006E0FEF745F9801B642801D903200EE5AB
:10D550004F480068C0F340700028F2D1206800F402
:10D560000020B0F5002F01D1E06B38B1206800F445
:10D570008010B0F5801F4ED1206CE8BB4448883045
:10D58000006800F440304FF4403191FAA1F1B1FA53
:10D5900081F120FA01F53E488830006800F0E04053
:10D5A0004FF0E04191FAA1F1B1FA81F120FA01F7CF
:10D5B00047F6C07191FAA1F1B1FA81F16069884032
:10D5C0004FF4403191FAA1F1B1FA81F105FA01F17C
:10D5D00008434FF0706292FAA2F2B2FA82F2A169A5
:10D5E000914008434FF0E04191FAA1F1B1FA81F185
:10D5F00007FA01F1084300E00DE025498831086091
:10D60000081D006820F4F851A06A401E41EA00207D
:10D610001F498C310860206800F40010B0F5001F2D
:10D6200048D1E06FB0F1006F44D100E0A7E01848A6
:10D630008830006800F070604FF0706191FAA1F1DD
:10D64000B1FA81F120FA01F511488830006800F044
:10D65000E0404FF0E04191FAA1F1B1FA81F120FAF6
:10D6600001F747F6C07191FAA1F1B1FA81F1606951
:10D6700088404FF4403292FAA2F2B2FA82F2216A62
:10D68000914008434FF0706191FAA1F102E000006F
:10D6900000380240B1FA81F105FA01F108434FF078
:10D6A000E04191FAA1F1B1FA81F107FA01F10843E1
:10D6B00034490860207800F00800082845D1314836
:10D6C000006800F070604FF0706191FAA1F1B1FA5A
:10D6D00081F120FA01F52B48006800F440304FF446
:10D6E000403191FAA1F1B1FA81F120FA01F747F640
:10D6F000C07191FAA1F1B1FA81F1606988404FF4EB
:10D70000403191FAA1F1B1FA81F107FA01F1084330
:10D710004FF0706191FAA1F1B1FA81F105FA01F1CE
:10D7200008434FF0E04292FAA2F2B2FA82F2E169C3
:10D730009140084313490860081D006820F44030F8
:10D74000E16A08430F49091D08600E4888380068DF
:10D7500040F080500B4988390860FEF739F80646DA
:10D7600006E0FEF735F8801B642801D9032035E474
:10D77000044888380068C0F340700028F1D00020C9
:10D780002CE400008838024070B504460D4600269F
:10D790006648006800F00F00A8420ED26348006897
:10D7A00020F00F002843614908600846006800F037
:10D7B0000F00A84201D0012070BD207800F00200C7
:10D7C000022807D15A48006820F0F000A1680843F9
:10D7D00057490860207800F00100002860D0606898
:10D7E000012807D1524808380068C0F34040A0B96A
:10D7F0000120E1E76068022807D14D480838006839
:10D80000C0F3406048B90120D6E7494808380068AD
:10D81000C0F3400008B90120CEE74548006820F079
:10D8200003006168084342490860FDF7D1FF0646DE
:10D830006068012810D108E0FDF7CAFF801B41F2A3
:10D840008831884201D90320B6E73948006800F0E2
:10D850000C000428F0D123E06068022810D108E011
:10D86000FDF7B6FF801B41F28831884201D90320C1
:10D87000A2E72F48006800F00C000828F0D10FE064
:10D8800008E0FDF7A5FF801B41F28831884201D9ED
:10D89000032091E72648006800F00C000028F0D132
:10D8A0002248006800F00F00A8420ED91F48006807
:10D8B00020F00F0028431D4908600846006800F06A
:10D8C0000F00A84201D0012076E7207800F0040084
:10D8D000042807D11648006820F4E050E1680843A6
:10D8E00013490860207800F00800082808D1104883
:10D8F000006820F46040216940EAC1000C490860DA
:10D9000000F022F80A49096801F0F001F02292FAC9
:10D91000A2F2B2FA82F2D140064A515CC8400649EE
:10D9200008600020FEF7B6F9002045E7003C024001
:10D9300008380240283E010898010120014800688B
:10D94000704700009801012070B5002100220023DB
:10D950000020274C246804F00C0424B1042C04D0CB
:10D96000082C41D103E0234840E022483EE0204C0F
:10D97000241F246804F03F011D4C241F246804F474
:10D98000800484B11B4CB4FBF1F5194C241F2468AE
:10D9900047F6C076344096FAA6F6B6FA86F6F44014
:10D9A00005FB04F20FE0134CB4FBF1F5104C241FFF
:10D9B000246847F6C076344096FAA6F6B6FA86F69C
:10D9C000F44005FB04F20A4C241F246804F440349C
:10D9D0004FF4403595FAA5F5B5FA85F5EC40641C91
:10D9E0006300B2FBF3F001E0024800BF00BF70BD6E
:10D9F000083802400024F40070B586B006460C4694
:10DA0000154636BB00BF2748006840F00100254995
:10DA100008600846006800F00100009000BF00BFE9
:10DA200088150190022002900320049000200390AA
:10DA3000059001A91C48FDF7B5FD1A482838006873
:10DA400020F0EC6044EA05010843164928390860D3
:10DA500025E000BF1348006840F004001149086049
:10DA60000846006800F00400009000BF00BF4815A1
:10DA70000190022002900320049000200390059062
:10DA800001A90A48FDF78EFD06482838006820F0F5
:10DA9000784044EAC501084302492839086006B0C5
:10DAA00070BD000030380240000002400008024013
:10DAB000F8B5044600250026207800F00100002873
:10DAC00071D0FD48006800F00C0004280DD0FA4821
:10DAD000006800F00C00082813D1F748001F006808
